:10000300FEFDFEFDFBFEFDFBF7FEFDFBF7EFFEFD38
:10001300FBF7EFDFFEFDFBF7EFDFBFFEFDFBF7EFC7
:10002300DFBF7F7FBF7FBFDF7FBFDFEF7FBFDFEF3D
:10003300F77FBFDFEFF7FB7FBFDFEFF7FBFD7FBF8F
:10004300DFEFF7FBFDFEFDFBF7EFDFBF7FFEFDFB01
:0D005300F7F7FBFDFE7FBFDFEFDFBF7F0093
:10008100EF1FAA0670011E4A600BE4FDEDC3946EDA
:0500910050EE0D80F7A8
:010096002247
:10006000E4FCEC90000393F580C2B07F647E001244
:100070000081D2B07F647E001200810CBC5DE38001
:01008000DFA0
:0300000002009764
:0C009700787FE4F6D8FD75810702006058
:00000001FF
