:10000300FEFDFEFDFBFEFDFBF7FEFDFBF7EFFEFD38
:10001300FBF7EFDFFEFDFBF7EFDFBFFEFDFBF7EFC7
:10002300DFBF7F7FBF7FBFDF7FBFDFEF7FBFDFEF3D
:10003300F77FBFDFEFF7FB7FBFDFEFF7FBFD7FBF8F
:10004300DFEFF7FBFDFEFDFBF7EFDFBF7FFEFDFB01
:0D005300F7F7FBFDFE7FBFDFEFDFBF7F0093
:04007C007F647E001F
:10008000EF1FAA0670011E4A600BE4FDEDC3946EDB
:0500900050EE0D80F7A9
:010095002248
:10006000E4FCEC90000393F58012007CC2B0120017
:0C0070007CD2B012007C0CBC5DE880E487
:0300000002009665
:0C009600787FE4F6D8FD75810702006059
:00000001FF
